{"abi":[{"type":"constructor","inputs":[{"name":"_tokenImplementation","type":"address","internalType":"address"},{"name":"_router","type":"address","internalType":"address"},{"name":"_weth","type":"address","internalType":"address"}],"stateMutability":"nonpayable"},{"type":"receive","stateMutability":"payable"},{"type":"function","name":"PROJECT_FEE_PERCENT","inputs":[],"outputs":[{"name":"","type":"uint256","internalType":"uint256"}],"stateMutability":"view"},{"type":"function","name":"allMemes","inputs":[{"name":"","type":"uint256","internalType":"uint256"}],"outputs":[{"name":"","type":"address","internalType":"address"}],"stateMutability":"view"},{"type":"function","name":"buyMeme","inputs":[{"name":"tokenAddr","type":"address","internalType":"address"}],"outputs":[],"stateMutability":"payable"},{"type":"function","name":"deployMeme","inputs":[{"name":"symbol","type":"string","internalType":"string"},{"name":"totalSupply","type":"uint256","internalType":"uint256"},{"name":"perMint","type":"uint256","internalType":"uint256"},{"name":"price","type":"uint256","internalType":"uint256"}],"outputs":[{"name":"memeToken","type":"address","internalType":"address"}],"stateMutability":"nonpayable"},{"type":"function","name":"getMemeInfo","inputs":[{"name":"tokenAddr","type":"address","internalType":"address"}],"outputs":[{"name":"creator","type":"address","internalType":"address"},{"name":"symbol","type":"string","internalType":"string"},{"name":"totalSupply","type":"uint256","internalType":"uint256"},{"name":"perMint","type":"uint256","internalType":"uint256"},{"name":"price","type":"uint256","internalType":"uint256"},{"name":"totalMinted","type":"uint256","internalType":"uint256"},{"name":"remainingSupply","type":"uint256","internalType":"uint256"}],"stateMutability":"view"},{"type":"function","name":"getMemesCount","inputs":[],"outputs":[{"name":"","type":"uint256","internalType":"uint256"}],"stateMutability":"view"},{"type":"function","name":"memes","inputs":[{"name":"","type":"address","internalType":"address"}],"outputs":[{"name":"creator","type":"address","internalType":"address"},{"name":"symbol","type":"string","internalType":"string"},{"name":"totalSupply","type":"uint256","internalType":"uint256"},{"name":"perMint","type":"uint256","internalType":"uint256"},{"name":"price","type":"uint256","internalType":"uint256"},{"name":"exists","type":"bool","internalType":"bool"}],"stateMutability":"view"},{"type":"function","name":"mintMeme","inputs":[{"name":"tokenAddr","type":"address","internalType":"address"}],"outputs":[],"stateMutability":"payable"},{"type":"function","name":"owner","inputs":[],"outputs":[{"name":"","type":"address","internalType":"address"}],"stateMutability":"view"},{"type":"function","name":"projectFees","inputs":[],"outputs":[{"name":"","type":"uint256","internalType":"uint256"}],"stateMutability":"view"},{"type":"function","name":"router","inputs":[],"outputs":[{"name":"","type":"address","internalType":"address"}],"stateMutability":"view"},{"type":"function","name":"tokenImplementation","inputs":[],"outputs":[{"name":"","type":"address","internalType":"address"}],"stateMutability":"view"},{"type":"function","name":"weth","inputs":[],"outputs":[{"name":"","type":"address","internalType":"address"}],"stateMutability":"view"},{"type":"function","name":"withdrawFees","inputs":[],"outputs":[],"stateMutability":"nonpayable"},{"type":"event","name":"FeesDistributed","inputs":[{"name":"token","type":"address","indexed":true,"internalType":"address"},{"name":"creator","type":"address","indexed":true,"internalType":"address"},{"name":"creatorFee","type":"uint256","indexed":false,"internalType":"uint256"},{"name":"projectFee","type":"uint256","indexed":false,"internalType":"uint256"}],"anonymous":false},{"type":"event","name":"LiquidityAdded","inputs":[{"name":"token","type":"address","indexed":true,"internalType":"address"},{"name":"tokenAmount","type":"uint256","indexed":false,"internalType":"uint256"},{"name":"ethAmount","type":"uint256","indexed":false,"internalType":"uint256"},{"name":"liquidity","type":"uint256","indexed":false,"internalType":"uint256"}],"anonymous":false},{"type":"event","name":"MemeBought","inputs":[{"name":"token","type":"address","indexed":true,"internalType":"address"},{"name":"buyer","type":"address","indexed":true,"internalType":"address"},{"name":"amount","type":"uint256","indexed":false,"internalType":"uint256"},{"name":"cost","type":"uint256","indexed":false,"internalType":"uint256"},{"name":"usedDex","type":"bool","indexed":false,"internalType":"bool"}],"anonymous":false},{"type":"event","name":"MemeDeployed","inputs":[{"name":"token","type":"address","indexed":true,"internalType":"address"},{"name":"creator","type":"address","indexed":true,"internalType":"address"},{"name":"symbol","type":"string","indexed":false,"internalType":"string"},{"name":"totalSupply","type":"uint256","indexed":false,"internalType":"uint256"},{"name":"perMint","type":"uint256","indexed":false,"internalType":"uint256"},{"name":"price","type":"uint256","indexed":false,"internalType":"uint256"}],"anonymous":false},{"type":"event","name":"MemeMinted","inputs":[{"name":"token","type":"address","indexed":true,"internalType":"address"},{"name":"buyer","type":"address","indexed":true,"internalType":"address"},{"name":"amount","type":"uint256","indexed":false,"internalType":"uint256"},{"name":"cost","type":"uint256","indexed":false,"internalType":"uint256"}],"anonymous":false},{"type":"error","name":"ExceedsTotalSupply","inputs":[]},{"type":"error","name":"FailedDeployment","inputs":[]},{"type":"error","name":"InsufficientBalance","inputs":[{"name":"balance","type":"uint256","internalType":"uint256"},{"name":"needed","type":"uint256","internalType":"uint256"}]},{"type":"error","name":"InsufficientPayment","inputs":[]},{"type":"error","name":"InvalidParameters","inputs":[]},{"type":"error","name":"MemeNotFound","inputs":[]},{"type":"error","name":"NotOwner","inputs":[]},{"type":"error","name":"TransferFailed","inputs":[]}],"bytecode":{"object":"0x6101003461013c57601f6121dd38819003918201601f19168301916001600160401b038311848410176101405780849260609460405283398101031261013c5761004881610154565b90610061604061005a60208401610154565b9201610154565b916001600160a01b03811615801561012b575b801561011a575b61010b573360805260a05260c05260e052604051612074908161016982396080518181816104ff0152610b9b015260a0518181816107f90152610e4a015260c05181818160d4015281816112ea015281816113d7015281816115fd0152611d60015260e051818181610c040152818161127b015281816113710152818161162d01528181611ab90152611dd10152f35b630e52390960e41b5f5260045ffd5b506001600160a01b0383161561007b565b506001600160a01b03821615610074565b5f80fd5b634e487b7160e01b5f52604160045260245ffd5b51906001600160a01b038216820361013c5756fe6080604052600436101561001a575b3615610018575f80fd5b005b5f5f3560e01c8063073397db14610e965780631b78cd4314610e795780632f3a3d5d14610e355780633248967814610c335780633fc8cef314610bef578063476343ee14610b8957806358f54ffc1461074e578063782051dd146105cd5780638cfd3d151461052e5780638da5cb5b146104e9578063d3af5dfd14610140578063de509a2c14610124578063e5f6e261146101065763f887ea40146100bf575061000e565b346101035780600319360112610103576040517f00000000000000000000000000000000000000000000000000000000000000006001600160a01b03168152602090f35b80fd5b50346101035780600319360112610103576020600154604051908152f35b5034610103578060031936011261010357602060405160058152f35b506020366003190112610103576004356001600160a01b0381168082036104e55780835282602052604083209160ff600584015416156104d65734156104c75761018a3482611250565b60405163013c738f60e41b81529093602082600481875afa9182156104bc578692610488575b506101bb8234611080565b9160038201928354936101ce858361109e565b60405163144613ff60e31b815290956020826004818c5afa801561047d578b90610449575b6101fd9250611052565b9460028501958654101590891180610440575b156102655750505050505061022990833391349061136f565b604051918252346020830152600160408301527f45f57b23a7d2f775bfbb79924df036261e7493b86dc8a09733266f43ca418a9c60603393a380f35b8098919395989692949690610437575b1561040b5750939592919061028a838361109e565b94889789955b8487106102f9575b505050505050508034116102e1575b60405192835260208301528260408301527f45f57b23a7d2f775bfbb79924df036261e7493b86dc8a09733266f43ca418a9c60603393a380f35b6102f46102ee8234611073565b33611126565b6102a7565b9091929394959860405163144613ff60e31b81526020816004818d5afa80156103c7578c906103d8575b6103309150865490611052565b8254106103d2576040516335313c2160e11b81523360048201526020816024818f8e5af180156103c757610392575b5082546001916103859161037d906001600160a01b03168a886110b1565b865490611052565b9901959493929190610290565b6020813d82116103bf575b816103aa60209383610f04565b810103126103bb575061038561035f565b5f80fd5b3d915061039d565b6040513d8e823e3d90fd5b98610298565b506020813d8211610403575b816103f160209383610f04565b810103126103bb576103309051610323565b3d91506103e4565b96509350508415915061042890505761022990833391349061136f565b63177e3fc360e01b8452600484fd5b50831515610275565b50881515610210565b506020823d602011610475575b8161046360209383610f04565b810103126103bb576101fd91516101f3565b3d9150610456565b6040513d8d823e3d90fd5b9091506020813d6020116104b4575b816104a460209383610f04565b810103126103bb5751905f6101b0565b3d9150610497565b6040513d88823e3d90fd5b63cd1c886760e01b8452600484fd5b6343613b5560e01b8452600484fd5b8280fd5b50346101035780600319360112610103576040517f00000000000000000000000000000000000000000000000000000000000000006001600160a01b03168152602090f35b5034610103576020366003190112610103576004356001600160a01b038116908190036105c957815260208190526040902080546001600160a01b031661057760018301610fb2565b9160028101549060038101549060ff6005600483015492015416916105ae604051968796875260c0602088015260c0870190610f56565b93604086015260608501526080840152151560a08301520390f35b5080fd5b5034610103576020366003190112610103576004356001600160a01b03811691908290036101035781815280602052604081209160ff6005840154161561073f5760018060a01b03835416916002840154916003850154946004810154906040519263144613ff60e31b8452602084600481845afa9384156107345785946106ff575b50602060049160405192838092636d011cd360e11b82525afa9485156106f357946106be575b5060016106839101610fb2565b956106a0604051978897885260e0602089015260e0880190610f56565b9460408701526060860152608085015260a084015260c08301520390f35b9093506020813d6020116106eb575b816106da60209383610f04565b810103126103bb5751926001610676565b3d91506106cd565b604051903d90823e3d90fd5b9093506020813d60201161072c575b8161071b60209383610f04565b810103126103bb5751926020610650565b3d915061070e565b6040513d87823e3d90fd5b6343613b5560e01b8252600482fd5b50346103bb5760803660031901126103bb576004359067ffffffffffffffff82116103bb57366023830112156103bb57816004013561078c81610f3a565b9261079a6040519485610f04565b81845236602483830101116103bb57815f926024602093018387013784010152602435604435606435908451158015610b81575b8015610b79575b8015610b71575b610b6257828111610b62576e5af43d82803e903d91602b57fd5bf37f0000000000000000000000000000000000000000000000000000000000000000763d602d80600a3d3981f3363d3d373d3d3d363d7300000062ffffff8260881c16175f5260781b1760205260018060a01b03603760095ff016938415610b5357843b156103bb57604051633951d29760e11b815260c060048201525f818061088360c482018b610f56565b8860248301528660448301528760648301523360848301523060a48301520381838a5af18015610b4857610b35575b5060405160c0810181811067ffffffffffffffff821117610b215760405233815260208101908782526040810186815260608201858152608083019187835260a0840194600186528a875286602052604087209460018060a01b039051166bffffffffffffffffffffffff60a01b86541617855560018501905180519067ffffffffffffffff8211610b0d576109488354610f7a565b601f8111610ac8575b50602090601f8311600114610a5f576005979695949392918a9183610a54575b50508160011b915f199060031b1c19161790555b516002840155516003830155516004820155019051151560ff801983541691161790556001549068010000000000000000821015610a4057509484927f48201e7a48122133a2467f1df3f495f274a167da761c9ece4a95446e1bd9dd71926109f588600160209a01600155610ed8565b81549060031b9087821b9160018060a01b03901b1916179055610a2360405193608085526080850190610f56565b9588840152604083015260608201528033940390a3604051908152f35b634e487b7160e01b81526041600452602490fd5b015190505f80610971565b838a52818a209190601f1984168b5b818110610ab0575091600193918560059b9a999897969410610a98575b505050811b019055610985565b01515f1960f88460031b161c191690555f8080610a8b565b92936020600181928786015181550195019301610a6e565b838a5260208a20601f840160051c81019160208510610b03575b601f0160051c01905b818110610af85750610951565b8a8155600101610aeb565b9091508190610ae2565b634e487b7160e01b89526041600452602489fd5b634e487b7160e01b83526041600452602483fd5b610b4191505f90610f04565b5f5f6108b2565b6040513d5f823e3d90fd5b63b06ebf3d60e01b5f5260045ffd5b630e52390960e41b5f5260045ffd5b5081156107dc565b5080156107d5565b5082156107ce565b346103bb575f3660031901126103bb577f00000000000000000000000000000000000000000000000000000000000000006001600160a01b0381163303610be0576002548015610b6257610018915f600255611126565b6330cd747160e01b5f5260045ffd5b346103bb575f3660031901126103bb576040517f00000000000000000000000000000000000000000000000000000000000000006001600160a01b03168152602090f35b60203660031901126103bb576004356001600160a01b0381168082036103bb57805f525f60205260405f209160ff60058401541615610e265760405163013c738f60e41b815292602084600481865afa938415610b48575f94610df2575b50833410610de35760405163144613ff60e31b815291602083600481875afa928315610b48575f93610daf575b50610ccf6003830193845490611052565b600283015410610da0576040516335313c2160e11b81523360048201526020816024815f895af1908115610b48578691610d6b575b509154610d1c926001600160a01b03909116916110b1565b823411610d59575b549160405192835260208301527f394631f876054265a6bd56cfa935a08db73268476a10519add9d0d4c78af56f360403393a3005b610d666102ee8434611073565b610d24565b90506020813d602011610d98575b81610d8660209383610f04565b810103126103bb575084610d1c610d04565b3d9150610d79565b63177e3fc360e01b5f5260045ffd5b9092506020813d602011610ddb575b81610dcb60209383610f04565b810103126103bb57519185610cbe565b3d9150610dbe565b63cd1c886760e01b5f5260045ffd5b9093506020813d602011610e1e575b81610e0e60209383610f04565b810103126103bb57519284610c91565b3d9150610e01565b6343613b5560e01b5f5260045ffd5b346103bb575f3660031901126103bb576040517f00000000000000000000000000000000000000000000000000000000000000006001600160a01b03168152602090f35b346103bb575f3660031901126103bb576020600254604051908152f35b346103bb5760203660031901126103bb576004356001548110156103bb57610ebf602091610ed8565b905460405160039290921b1c6001600160a01b03168152f35b600154811015610ef05760015f5260205f2001905f90565b634e487b7160e01b5f52603260045260245ffd5b90601f8019910116810190811067ffffffffffffffff821117610f2657604052565b634e487b7160e01b5f52604160045260245ffd5b67ffffffffffffffff8111610f2657601f01601f191660200190565b805180835260209291819084018484015e5f828201840152601f01601f1916010190565b90600182811c92168015610fa8575b6020831014610f9457565b634e487b7160e01b5f52602260045260245ffd5b91607f1691610f89565b9060405191825f825492610fc584610f7a565b80845293600181169081156110305750600114610fec575b50610fea92500383610f04565b565b90505f9291925260205f20905f915b818310611014575050906020610fea928201015f610fdd565b6020919350806001915483858901015201910190918492610ffb565b905060209250610fea94915060ff191682840152151560051b8201015f610fdd565b9190820180921161105f57565b634e487b7160e01b5f52601160045260245ffd5b9190820391821161105f57565b811561108a570490565b634e487b7160e01b5f52601260045260245ffd5b8181029291811591840414171561105f57565b91600582028281046005148315171561105f577ff227c93b6b816f85ef75ee32431495d61932665acd4193a40431a42f1502701a916110f66064604093048095611073565b936111018583611126565b61110b818761159e565b825194855260208501526001600160a01b03908116941692a3565b5f80809381935af13d1561116c573d61113e81610f3a565b9061114c6040519283610f04565b81525f60203d92013e5b1561115d57565b6312171d8360e31b5f5260045ffd5b611156565b805115610ef05760200190565b805160011015610ef05760400190565b6020818303126103bb5780519067ffffffffffffffff82116103bb57019080601f830112156103bb5781519167ffffffffffffffff8311610f26578260051b9060208201936111e06040519586610f04565b84526020808501928201019283116103bb57602001905b8282106112045750505090565b81518152602091820191016111f7565b90602080835192838152019201905f5b8181106112315750505090565b82516001600160a01b0316845260209384019390920191600101611224565b6040516112e6925f92611264606084610f04565b60028352604036602085013761127983611171565b7f00000000000000000000000000000000000000000000000000000000000000006001600160a01b031690526112ae8361117e565b6001600160a01b0390911690526040805163d06ca61f60e01b8152600481019290925260248201529283918291906044830190611214565b03817f00000000000000000000000000000000000000000000000000000000000000006001600160a01b03165afa5f9181611333575b5061132657505f90565b61132f9061117e565b5190565b6113509192503d805f833e6113488183610f04565b81019061118e565b905f61131c565b908160209103126103bb575180151581036103bb5790565b7f00000000000000000000000000000000000000000000000000000000000000006001600160a01b0316929091833b156103bb57604051630d0e30db60e41b81525f95908681600481868a5af18015610b485761156a575b5060405163095ea7b360e01b81527f00000000000000000000000000000000000000000000000000000000000000006001600160a01b03811660048301526024820184905294906020816044818b8b5af1801561155f57611532575b5060405195611433606088610f04565b60028752604036602089013761144887611171565b526114528661117e565b6001600160a01b039091169052605f838102938015908504909114171561151e5761012c420180421161150a578694926064949286926114bb604051998a98899788966338ed173960e01b8852600488015204602486015260a0604486015260a4850190611214565b6001600160a01b03928316606485015260848401919091529190910393165af180156114ff576114e9575050565b6114fc913d8091833e6113488183610f04565b50565b6040513d84823e3d90fd5b634e487b7160e01b87526011600452602487fd5b634e487b7160e01b86526011600452602486fd5b6115539060203d602011611558575b61154b8183610f04565b810190611357565b611423565b503d611541565b6040513d8a823e3d90fd5b6115779196505f90610f04565b5f945f6113c7565b908160209103126103bb57516001600160a01b03811681036103bb5790565b6001600160a01b0381165f81815260208181526040808320905163144613ff60e31b815292949293929184600481865afa938415610b48575f94611af1575b506115ee6003820194855490611052565b936002820194855410611adf577f000000000000000000000000000000000000000000000000000000000000000090813b158015611ab6575b611aa3577f00000000000000000000000000000000000000000000000000000000000000006001600160a01b03811696909290873b156103bb57604051630d0e30db60e41b81525f816004818e8d5af18015610b4857611a8e575b5060405163c45a015560e01b81526001600160a01b03831695906020816004818a5afa8b9181611a6d575b5061170d57505050505050505050803b156105c957818091602460405180948193632e1a7d4d60e01b83528860048401525af16116f8575b50506116f390600254611052565b600255565b611703828092610f04565b61010357806116e5565b60405163e6a4390560e01b8152600481018a9052602481018b905290602090829060449082906001600160a01b03165afa8b9181611a3c575b5061178b57505050505050505050803b156105c957818091602460405180948193632e1a7d4d60e01b83528860048401525af16116f85750506116f390600254611052565b979a9998969795969495939493906001600160a01b038216611a2857505060405163144613ff60e31b81526020816004818e5afa8015611a1d5789906119e9575b6117d99150855490611052565b9054106119d5576040516335313c2160e11b81523060048201526020816024818b8e5af1801561155f576119a6575b50825460405163095ea7b360e01b81526001600160a01b038316600482015260248101919091526020816044818b8e5af1801561155f57926020928a926118869561198b575b5060405163095ea7b360e01b81526001600160a01b0390911660048201526024810192909252909283919082908a9082906044820190565b03925af180156104bc5761196e575b50549061012c420180421161151e579185606094926118cd89956040519889978896879562e8e33760e81b8752309360048801611b54565b03925af18083928492611939575b506118f0575050506116f39150600254611052565b7f64b83944e79c3ce8d4c297411de637c3e102d064677aac0c163976ebdcd6f50e935061193490604051938493846040919493926060820195825260208201520152565b0390a2565b9150925061195f915060603d606011611967575b6119578183610f04565b810190611b39565b90925f6118db565b503d61194d565b6119869060203d6020116115585761154b8183610f04565b611895565b6119a190853d87116115585761154b8183610f04565b61184e565b6020813d6020116119cd575b816119bf60209383610f04565b810103126103bb5751611808565b3d91506119b2565b505050505050506116f39150600254611052565b506020813d602011611a15575b81611a0360209383610f04565b810103126103bb576117d990516117cc565b3d91506119f6565b6040513d8b823e3d90fd5b98509895505050505050610fea9491611b9d565b611a5f91925060203d602011611a66575b611a578183610f04565b81019061157f565b905f611746565b503d611a4d565b611a8791925060203d602011611a6657611a578183610f04565b905f6116ad565b611a9b9199505f90610f04565b5f975f611682565b505050505050506116f390600254611052565b507f00000000000000000000000000000000000000000000000000000000000000003b15611627565b5050505050506116f390600254611052565b9093506020813d602011611b1d575b81611b0d60209383610f04565b810103126103bb5751925f6115dd565b3d9150611b00565b51906001600160701b03821682036103bb57565b908160609103126103bb578051916040602083015192015190565b6001600160a01b0391821681529181166020830152604082019290925260608101929092525f6080830181905260a083015290911660c082015260e08101919091526101000190565b604051630240bc6b60e21b815293959194929390926001600160a01b031690606081600481855afa8015610b48575f915f91611fe2575b50602060049360405194858092630dfe168160e01b82525afa928315610b48575f93611fb8575b506001600160a01b0385811693168314916001600160701b0391908315611fb15780935b15611faa57505b16908115611f975790611c456001600160701b03611c4a93168861109e565b611080565b946003870193611c5c85548098611080565b968715908115611f1f575b50611f0b575f95865b88881080611f01575b15611ef25760405163144613ff60e31b81526001600160a01b03831690602081600481855afa8015610b48575f90611ebf575b611cb99150895490611052565b60028c015410611d3f579060205f926024604051809581936335313c2160e11b83523060048401525af18015610b4857611d0d575b611cfb9150875490611052565b965f19811461105f5760010196611c70565b6020823d8211611d37575b81611d2560209383610f04565b810103126103bb57611cfb9150611cee565b3d9150611d18565b50949850509350935093505b8015611eb05760405163095ea7b360e01b81527f00000000000000000000000000000000000000000000000000000000000000006001600160a01b038116600483015260248201839052906020816044815f8a5af18015610b4857611e93575b5060405163095ea7b360e01b81526001600160a01b0382166004820152602481018590527f00000000000000000000000000000000000000000000000000000000000000009190602081806044810103815f6001600160a01b0388165af18015610b4857611e76575b5061012c42019283421161105f575f8693611e496060966040519889978896879562e8e33760e81b8752309360048801611b54565b03926001600160a01b03165af15f90805f935f9261193957506118f0575050506116f39150600254611052565b611e8e9060203d6020116115585761154b8183610f04565b611e14565b611eab9060203d6020116115585761154b8183610f04565b611dab565b50506116f39150600254611052565b506020813d8211611eea575b81611ed860209383610f04565b810103126103bb57611cb99051611cac565b3d9150611ecb565b94985050935093509350611d4b565b50600a8810611c79565b509350509350506116f39150600254611052565b60405163144613ff60e31b815291506020826004816001600160a01b038c165afa8015610b48575f90611f63575b611f579250611052565b6002890154105f611c67565b506020823d602011611f8f575b81611f7d60209383610f04565b810103126103bb57611f579151611f4d565b3d9150611f70565b505050935050506116f390600254611052565b9050611c26565b8193611c1f565b6001600160701b03919350611fdb9060203d602011611a6657611a578183610f04565b9290611bfb565b9150506060813d606011612036575b81611ffe60609383610f04565b810103126103bb5761200f81611b25565b91604061201e60208401611b25565b92015163ffffffff8116036103bb5791906020611bd4565b3d9150611ff156fea264697066735822122094f5d70645d6ac6f621302f495d74c111250183021975596d5eb32c93bf62cf464736f6c634300081c0033","linkReferences":{}},"methodIdentifiers":{"PROJECT_FEE_PERCENT()":"de509a2c","allMemes(uint256)":"073397db","buyMeme(address)":"d3af5dfd","deployMeme(string,uint256,uint256,uint256)":"58f54ffc","getMemeInfo(address)":"782051dd","getMemesCount()":"e5f6e261","memes(address)":"8cfd3d15","mintMeme(address)":"32489678","owner()":"8da5cb5b","projectFees()":"1b78cd43","router()":"f887ea40","tokenImplementation()":"2f3a3d5d","weth()":"3fc8cef3","withdrawFees()":"476343ee"},"id":30}