{"abi":[{"type":"constructor","inputs":[],"stateMutability":"nonpayable"},{"type":"function","name":"allowance","inputs":[{"name":"owner","type":"address","internalType":"address"},{"name":"spender","type":"address","internalType":"address"}],"outputs":[{"name":"","type":"uint256","internalType":"uint256"}],"stateMutability":"view"},{"type":"function","name":"approve","inputs":[{"name":"spender","type":"address","internalType":"address"},{"name":"value","type":"uint256","internalType":"uint256"}],"outputs":[{"name":"","type":"bool","internalType":"bool"}],"stateMutability":"nonpayable"},{"type":"function","name":"balanceOf","inputs":[{"name":"account","type":"address","internalType":"address"}],"outputs":[{"name":"","type":"uint256","internalType":"uint256"}],"stateMutability":"view"},{"type":"function","name":"creator","inputs":[],"outputs":[{"name":"","type":"address","internalType":"address"}],"stateMutability":"view"},{"type":"function","name":"decimals","inputs":[],"outputs":[{"name":"","type":"uint8","internalType":"uint8"}],"stateMutability":"view"},{"type":"function","name":"factory","inputs":[],"outputs":[{"name":"","type":"address","internalType":"address"}],"stateMutability":"view"},{"type":"function","name":"getMintCost","inputs":[],"outputs":[{"name":"cost","type":"uint256","internalType":"uint256"}],"stateMutability":"view"},{"type":"function","name":"initialize","inputs":[{"name":"_symbol","type":"string","internalType":"string"},{"name":"_totalSupply","type":"uint256","internalType":"uint256"},{"name":"_perMint","type":"uint256","internalType":"uint256"},{"name":"_price","type":"uint256","internalType":"uint256"},{"name":"_creator","type":"address","internalType":"address"},{"name":"_factory","type":"address","internalType":"address"}],"outputs":[],"stateMutability":"nonpayable"},{"type":"function","name":"maxSupply","inputs":[],"outputs":[{"name":"","type":"uint256","internalType":"uint256"}],"stateMutability":"view"},{"type":"function","name":"mint","inputs":[{"name":"to","type":"address","internalType":"address"}],"outputs":[{"name":"mintedAmount","type":"uint256","internalType":"uint256"}],"stateMutability":"nonpayable"},{"type":"function","name":"name","inputs":[],"outputs":[{"name":"","type":"string","internalType":"string"}],"stateMutability":"view"},{"type":"function","name":"perMint","inputs":[],"outputs":[{"name":"","type":"uint256","internalType":"uint256"}],"stateMutability":"view"},{"type":"function","name":"price","inputs":[],"outputs":[{"name":"","type":"uint256","internalType":"uint256"}],"stateMutability":"view"},{"type":"function","name":"remainingSupply","inputs":[],"outputs":[{"name":"","type":"uint256","internalType":"uint256"}],"stateMutability":"view"},{"type":"function","name":"symbol","inputs":[],"outputs":[{"name":"","type":"string","internalType":"string"}],"stateMutability":"view"},{"type":"function","name":"totalMinted","inputs":[],"outputs":[{"name":"","type":"uint256","internalType":"uint256"}],"stateMutability":"view"},{"type":"function","name":"totalSupply","inputs":[],"outputs":[{"name":"","type":"uint256","internalType":"uint256"}],"stateMutability":"view"},{"type":"function","name":"transfer","inputs":[{"name":"to","type":"address","internalType":"address"},{"name":"value","type":"uint256","internalType":"uint256"}],"outputs":[{"name":"","type":"bool","internalType":"bool"}],"stateMutability":"nonpayable"},{"type":"function","name":"transferFrom","inputs":[{"name":"from","type":"address","internalType":"address"},{"name":"to","type":"address","internalType":"address"},{"name":"value","type":"uint256","internalType":"uint256"}],"outputs":[{"name":"","type":"bool","internalType":"bool"}],"stateMutability":"nonpayable"},{"type":"event","name":"Approval","inputs":[{"name":"owner","type":"address","indexed":true,"internalType":"address"},{"name":"spender","type":"address","indexed":true,"internalType":"address"},{"name":"value","type":"uint256","indexed":false,"internalType":"uint256"}],"anonymous":false},{"type":"event","name":"Initialized","inputs":[{"name":"version","type":"uint64","indexed":false,"internalType":"uint64"}],"anonymous":false},{"type":"event","name":"Transfer","inputs":[{"name":"from","type":"address","indexed":true,"internalType":"address"},{"name":"to","type":"address","indexed":true,"internalType":"address"},{"name":"value","type":"uint256","indexed":false,"internalType":"uint256"}],"anonymous":false},{"type":"error","name":"ERC20InsufficientAllowance","inputs":[{"name":"spender","type":"address","internalType":"address"},{"name":"allowance","type":"uint256","internalType":"uint256"},{"name":"needed","type":"uint256","internalType":"uint256"}]},{"type":"error","name":"ERC20InsufficientBalance","inputs":[{"name":"sender","type":"address","internalType":"address"},{"name":"balance","type":"uint256","internalType":"uint256"},{"name":"needed","type":"uint256","internalType":"uint256"}]},{"type":"error","name":"ERC20InvalidApprover","inputs":[{"name":"approver","type":"address","internalType":"address"}]},{"type":"error","name":"ERC20InvalidReceiver","inputs":[{"name":"receiver","type":"address","internalType":"address"}]},{"type":"error","name":"ERC20InvalidSender","inputs":[{"name":"sender","type":"address","internalType":"address"}]},{"type":"error","name":"ERC20InvalidSpender","inputs":[{"name":"spender","type":"address","internalType":"address"}]},{"type":"error","name":"ExceedsMaxSupply","inputs":[]},{"type":"error","name":"InvalidInitialization","inputs":[]},{"type":"error","name":"NotInitializing","inputs":[]},{"type":"error","name":"OnlyFactory","inputs":[]}],"bytecode":{"object":"0x6080806040523460aa575f516020610fdf5f395f51905f525460ff8160401c16609b576002600160401b03196001600160401b038216016049575b604051610f3090816100af8239f35b6001600160401b0319166001600160401b039081175f516020610fdf5f395f51905f525581527fc7f505b2f371ae2175ee4913f4499e1f2633a7b5936321eed1cdaeb6115181d290602090a15f80603a565b63f92ee8a960e01b5f5260045ffd5b5f80fdfe6080806040526004361015610012575f80fd5b5f3560e01c90816302d05d3f14610c665750806306fdde0314610ba9578063095ea7b314610b2a5780630ed62b0214610b0d57806313c738f014610ad157806318160ddd14610a9557806323b872dd146109bd578063313ce567146109a25780636a6278421461087157806370a082311461082d57806372a3a52e1461031657806395d89b4114610224578063a035b1fe14610207578063a2309ff8146101ea578063a9059cbb146101b9578063c45a015514610191578063d5abeb0114610175578063da0239a6146101385763dd62ed3e146100ed575f80fd5b3461013457604036600319011261013457610106610cb3565b610117610111610cc9565b91610d46565b9060018060a01b03165f52602052602060405f2054604051908152f35b5f80fd5b34610134575f366003190112610134575f54600554810390811161016157602090604051908152f35b634e487b7160e01b5f52601160045260245ffd5b34610134575f3660031901126101345760205f54604051908152f35b34610134575f366003190112610134576003546040516001600160a01b039091168152602090f35b34610134576040366003190112610134576101df6101d5610cb3565b6024359033610d7e565b602060405160018152f35b34610134575f366003190112610134576020600554604051908152f35b34610134575f366003190112610134576020600254604051908152f35b34610134575f366003190112610134576040515f5f516020610ebb5f395f51905f525461025081610d01565b80845290600181169081156102f25750600114610288575b6102848361027881850382610cdf565b60405191829182610c89565b0390f35b5f516020610ebb5f395f51905f525f9081527f46a2803e59a4de4e7a4c574b1243f25977ac4c77d5a1a4a609b5394cebb4a2aa939250905b8082106102d857509091508101602001610278610268565b9192600181602092548385880101520191019092916102c0565b60ff191660208086019190915291151560051b840190910191506102789050610268565b346101345760c03660031901126101345760043567ffffffffffffffff8111610134573660238201121561013457806004013567ffffffffffffffff81116106c05760405191610370601f8301601f191660200184610cdf565b818352366024838301011161013457815f9260246020930183860137830101526084356001600160a01b038116908190036101345760a4356001600160a01b03811690819003610134575f516020610edb5f395f51905f52549160ff8360401c16159267ffffffffffffffff811680159081610825575b600114908161081b575b159081610812575b506108035767ffffffffffffffff1981166001175f516020610edb5f395f51905f5255836107d7575b50604051610431604082610cdf565b60068152655a5a4d656d6560d01b602082015261044c610e4f565b610454610e4f565b80519067ffffffffffffffff82116106c057819061047f5f516020610e7b5f395f51905f5254610d01565b601f811161075d575b50602090601f83116001146106df575f926106d4575b50508160011b915f199060031b1c1916175f516020610e7b5f395f51905f52555b835167ffffffffffffffff81116106c0576104e75f516020610ebb5f395f51905f5254610d01565b601f8111610651575b50602094601f82116001146105d6579481929394955f926105cb575b50508160011b915f199060031b1c1916175f516020610ebb5f395f51905f52555b6024355f556044356001556064356002556bffffffffffffffffffffffff60a01b60045416176004556bffffffffffffffffffffffff60a01b600354161760035561057457005b68ff0000000000000000195f516020610edb5f395f51905f5254165f516020610edb5f395f51905f52557fc7f505b2f371ae2175ee4913f4499e1f2633a7b5936321eed1cdaeb6115181d2602060405160018152a1005b01519050858061050c565b601f198216955f516020610ebb5f395f51905f525f52805f20915f5b88811061063957508360019596979810610621575b505050811b015f516020610ebb5f395f51905f525561052d565b01515f1960f88460031b161c19169055858080610607565b919260206001819286850151815501940192016105f2565b5f516020610ebb5f395f51905f525f527f46a2803e59a4de4e7a4c574b1243f25977ac4c77d5a1a4a609b5394cebb4a2aa601f830160051c810191602084106106b6575b601f0160051c01905b8181106106ab57506104f0565b5f815560010161069e565b9091508190610695565b634e487b7160e01b5f52604160045260245ffd5b01519050868061049e565b5f516020610e7b5f395f51905f525f9081528281209350601f198516905b818110610745575090846001959493921061072d575b505050811b015f516020610e7b5f395f51905f52556104bf565b01515f1960f88460031b161c19169055868080610713565b929360206001819287860151815501950193016106fd565b5f516020610e7b5f395f51905f525f529091507f2ae08a8e29253f69ac5d979a101956ab8f8d9d7ded63fa7a83b16fc47648eab0601f840160051c810191602085106107cd575b90601f859493920160051c01905b8181106107bf5750610488565b5f81558493506001016107b2565b90915081906107a4565b68ffffffffffffffffff191668010000000000000001175f516020610edb5f395f51905f525584610422565b63f92ee8a960e01b5f5260045ffd5b905015866103f9565b303b1591506103f1565b8591506103e7565b34610134576020366003190112610134576001600160a01b0361084e610cb3565b165f525f516020610e9b5f395f51905f52602052602060405f2054604051908152f35b346101345760203660031901126101345761088a610cb3565b6003546001600160a01b031633036109935760055490600154916108ae8382610d39565b5f541061098457826108bf91610d39565b6005556001600160a01b031690811561097157602091610900827f52c63247e1f47db19d5ce0460030c497f067ca4cebf71ba98eeadabe20bace0254610d39565b7f52c63247e1f47db19d5ce0460030c497f067ca4cebf71ba98eeadabe20bace0255805f525f516020610e9b5f395f51905f52835260405f208281540190555f7fddf252ad1be2c89b69c2b068fc378daa952ba7f163c4a11628f55a4df523b3ef84604051858152a3604051908152f35b63ec442f0560e01b5f525f60045260245ffd5b63c30436e960e01b5f5260045ffd5b630636a15760e11b5f5260045ffd5b34610134575f36600319011261013457602060405160128152f35b34610134576060366003190112610134576109d6610cb3565b6109de610cc9565b604435906109eb83610d46565b335f9081526020919091526040902054925f198410610a0f575b6101df9350610d7e565b828410610a7a576001600160a01b03811615610a67573315610a54576101df93610a3882610d46565b60018060a01b0333165f526020528360405f2091039055610a05565b634a1406b160e11b5f525f60045260245ffd5b63e602df0560e01b5f525f60045260245ffd5b8284637dc7a0d960e11b5f523360045260245260445260645ffd5b34610134575f3660031901126101345760207f52c63247e1f47db19d5ce0460030c497f067ca4cebf71ba98eeadabe20bace0254604051908152f35b34610134575f366003190112610134576001546002549081810291818304149015171561016157602090670de0b6b3a764000060405191048152f35b34610134575f366003190112610134576020600154604051908152f35b3461013457604036600319011261013457610b43610cb3565b602435903315610a67576001600160a01b0316908115610a5457610b6633610d46565b825f526020528060405f20556040519081527f8c5be1e5ebec7d5bd14f71427d1e84f3dd0314c0f7b2291e5b200ac8c7c3b92560203392a3602060405160018152f35b34610134575f366003190112610134576040515f5f516020610e7b5f395f51905f5254610bd581610d01565b80845290600181169081156102f25750600114610bfc576102848361027881850382610cdf565b5f516020610e7b5f395f51905f525f9081527f2ae08a8e29253f69ac5d979a101956ab8f8d9d7ded63fa7a83b16fc47648eab0939250905b808210610c4c57509091508101602001610278610268565b919260018160209254838588010152019101909291610c34565b34610134575f366003190112610134576004546001600160a01b03168152602090f35b602060409281835280519182918282860152018484015e5f828201840152601f01601f1916010190565b600435906001600160a01b038216820361013457565b602435906001600160a01b038216820361013457565b90601f8019910116810190811067ffffffffffffffff8211176106c057604052565b90600182811c92168015610d2f575b6020831014610d1b57565b634e487b7160e01b5f52602260045260245ffd5b91607f1691610d10565b9190820180921161016157565b6001600160a01b03165f9081527f52c63247e1f47db19d5ce0460030c497f067ca4cebf71ba98eeadabe20bace016020526040902090565b6001600160a01b0316908115610e3c576001600160a01b031691821561097157815f525f516020610e9b5f395f51905f5260205260405f2054818110610e2357817fddf252ad1be2c89b69c2b068fc378daa952ba7f163c4a11628f55a4df523b3ef92602092855f525f516020610e9b5f395f51905f5284520360405f2055845f525f516020610e9b5f395f51905f52825260405f20818154019055604051908152a3565b8263391434e360e21b5f5260045260245260445260645ffd5b634b637e8f60e11b5f525f60045260245ffd5b60ff5f516020610edb5f395f51905f525460401c1615610e6b57565b631afcd79f60e31b5f5260045ffdfe52c63247e1f47db19d5ce0460030c497f067ca4cebf71ba98eeadabe20bace0352c63247e1f47db19d5ce0460030c497f067ca4cebf71ba98eeadabe20bace0052c63247e1f47db19d5ce0460030c497f067ca4cebf71ba98eeadabe20bace04f0c57e16840df040f15088dc2f81fe391c3923bec73e23a9662efc9c229c6a00a2646970667358221220c2361b363cbd7d0767a68c9f8f775c5c08e498a018e4a46e562600759d49db5264736f6c634300081c0033f0c57e16840df040f15088dc2f81fe391c3923bec73e23a9662efc9c229c6a00","linkReferences":{}},"methodIdentifiers":{"allowance(address,address)":"dd62ed3e","approve(address,uint256)":"095ea7b3","balanceOf(address)":"70a08231","creator()":"02d05d3f","decimals()":"313ce567","factory()":"c45a0155","getMintCost()":"13c738f0","initialize(string,uint256,uint256,uint256,address,address)":"72a3a52e","maxSupply()":"d5abeb01","mint(address)":"6a627842","name()":"06fdde03","perMint()":"0ed62b02","price()":"a035b1fe","remainingSupply()":"da0239a6","symbol()":"95d89b41","totalMinted()":"a2309ff8","totalSupply()":"18160ddd","transfer(address,uint256)":"a9059cbb","transferFrom(address,address,uint256)":"23b872dd"},"id":31}